:1009B800464D20496E6974204F4B210A00464D2050
:1009C800496E6974204661696C210A00464D5F468C
:1009D8005245203D2025640A00464D5F5253534935
:1009E800203D2025640A00464D5F564F4C203D208F
:0409F80025580A0074
:0B0B8B00024521FC024300000142056E
:1007D900C2A3C2A4C2A5C2A6C2A7120BBED29912B5
:1007E900068F50197BFF7A0979B81200657F587E08
:1007F90002120BA77F587E02120BA7800B7BFF7A90
:100809000979C512006580FEAF46AE45120A3B7BE9
:10081900FF7A0979D4854531854632120065120A75
:10082900E38E438F447BFF7A0979E185433185441F
:1008390032120065AF42120AAE7BFF7A0979EF8561
:100849004231120065AF42120A78AF46AE4512082E
:060859005F12056E80EF46
:10056E00200A2B2090377F057E00120BA720902D9E
:10057E00D20AE542C3940F50090542AF42120AAEA9
:10058E00801BE542C3940F401475420F800F3090CC
:10059E000C7F057E00120BA7309002C20A200C279A
:1005AE002091337F057E00120BA7209129D20CE5F6
:1005BE0042D3940040091542AF42120AAE8017E5AD
:1005CE00427013F542800F30910C7F057E00120BA6
:1005DE00A7309102C20C2009442092507F057E0064
:1005EE00120BA7209246D209C3E5469430E5456426
:1005FE008094AA501374642546F546E43545F545B6
:10060E00AF46FE120A3B8024C3E5469430E54564AE
:10061E008094AA401775452A754630800F30920C8B
:10062E007F057E00120BA7309202C209200B4220DA
:10063E00934E7F057E00120BA7209344D20BD3E579
:10064E004694FCE545648094A14012749C2546F5C1
:10065E004674FF3545F545AF46FE020A3BD3E546E7
:10066E0094FCE545648094A150167545217546FCB1
:10067E002230930C7F057E00120BA7309302C20B23
:01068E002249
:050C0700120C0CD2A14B
:010C0C0022C5
:0F0BD400D2A0D2A1120C0CC2A0120C0CC2A122F2
:0C0BF100C2A0D2A1120C0CD2A0020C0C6D
:0A0BFD00A20192A0120C07C2A1226F
:0D0BE300D2A0120C07A2A09201C2A1A20193
:010BF00022E2
:100B66007E08AD061EED6015EF30E704D2A08002C8
:100B7600C2A0120C07C2A1EF25E0FF80E5120BE32D
:040B86009200A20037
:010B8A002248
:100B15007F08E4FED2A0AD071FED6014EE25E0FED0
:100B2500D2A1120C0C30A0010EC2A1120C0C80E651
:090B3500A2009201120BFDAF06B3
:010B3E002294
:100BA7007D737C00ED1D70011C144C70F7EF1F70F6
:060BB700011E144E70EA5D
:010BBD002215
:100BBE00438920758DFD758BFDD28EC29FD29ED23C
:060BCE009CD2AFD2AC2264
:10094A002D2D2D2D2D67436869704944203D2025A2
:10095A00782D2D2D2D2D0A00C00100000400C6ADF2
:10096A00600042C600000000000000000000000015
:10097A0000000000000000192A11B0422A11B83103
:10098A00C0002A91940000A8C400F7CF2ADC806F27
:10099A004608008606610000109E23C804060E1C45
:0E09AA0000000000000000000000000000003F
:040B96000212000047
:0808DA008F2E8B2F8A3089312B
:1008E200E4F534120BD4E52EB401047F2180027F9B
:1008F20020120B66E433F534E4F533E533C3953265
:100902005040E52EB4011BE53214B53304D2008009
:1009120002C200120B15AB2FAA30A931EF12046EDE
:100922008011AB2FAA30A931120455FF120B66E4D5
:1009320033F534053374012531F531E43530F530C2
:0709420080B9120BF1AF3484
:01094900228B
:10068F00E4F52278237C00FD7BFF7A0979AAFE7FAF
:10069F000A12042FE4F52DF508750902FB7A00798B
:1006AF0008753202FF1208DA8F227F327E00120B9A
:1006BF00A77B007A00792375320A7F011208DA8F3F
:1006CF00227F327E00120BA7751200852B13E513C4
:1006DF00F512E52CF5137BFF7A09794A85123185DE
:1006EF001332120065E51364087004E51264587044
:1006FF003EF52DE52D90096293FF7408252DF8A680
:10070F0007052DE52DB408EB7BFF7A097962753269
:10071F0002E4FF1208DA8F227F587E02120BA77BAA
:10072F00FF7A097962753248E4FF1208DA8F227F67
:0D073F00327E00120BA7E5226002C322D318
:01074C00228A
:1009FC00E50B540CFD70059021FC800BBD040280AE
:100A0C0003BD0803901DB0E50B5403FD70047B0A75
:100A1C00800CBD01047B0A8005BD02027B05C3EF7F
:0E0A2C009582FFEE9583FEEBFD7C00120480A8
:010A3A002299
:100A3B001209FCAD07AC06430880ED7802CEC31358
:100A4B00CE13D8F9F50AED5403C4333354C0441014
:100A5B00FFE50B540F4FF50B7B007A0079087532CD
:0D0A6B0004E4FF1208DA7F327E00020BA7C0
:100AE30078227C007D007BFF7A0979B47E007F0445
:100AF30012042F7B007A0079227532047F011208D9
:100B0300DA7F327E00120BA7E524C3137E00547FE5
:010B1300FFE2
:010B140022BE
:100AAE00E4FE74082EF8E6FD74222EF8A6050EBE9E
:100ABE0008F0EF540FFFE52954F04FF5295325EFB9
:100ACE007B007A007922753208E4FF1208DA7F3251
:050ADE007E00020BA7E1
:0C0B9A000A14C0F9A4B0999282F880906F
:100A7800EF75F00A84AEF0EF75F00A84F522AF0640
:100A880074142FF8E6F580D2A67F017E00120BA71A
:100A9800C2A674142522F8E6F580D2A77F017E004D
:050AA800120BA7C2A71C
:010AAD002226
:04085F00AB07AA0633
:100863007C277D101204D58F247C277D10AF03AE27
:10087300021204D57E037FE8CFCDCFCECCCE1204B7
:10088300D58F23AE02AF037C037DE81204D57E002F
:100893007F64CFCDCFCECCCE1204D58F2274142556
:1008A30024F8E6F580D2A57F017E00120BA7C2A52E
:1008B30074142523F8E6F580D2A47F017E00120B81
:1008C300A7C2A474142522F8E6F580D2A37F017E83
:0608D30000120BA7C2A3F6
:0108D90022FC
:0300000002074DA7
:0C074D00787FE4F6D8FD75814602079421
:10035F00E709F608DFFA8046E709F208DFFA803E80
:10036F0088828C83E709F0A3DFFA8032E309F6086D
:10037F00DFFA8078E309F208DFFA807088828C83D5
:10038F00E309F0A3DFFA806489828A83E0A3F60889
:10039F00DFFA805889828A83E0A3F208DFFA804C63
:1003AF0080D280FA80C680D4806980F2803380103A
:1003BF0080A680EA809A80A880DA80E280CA8033A3
:1003CF0089828A83ECFAE493A3C8C582C8CCC5831B
:1003DF00CCF0A3C8C582C8CCC583CCDFE9DEE780EB
:1003EF000D89828A83E493A3F608DFF9ECFAA9F06A
:1003FF00EDFB2289828A83ECFAE0A3C8C582C8CCC0
:10040F00C583CCF0A3C8C582C8CCC583CCDFEADED8
:10041F00E880DB89828A83E493A3F208DFF980CC3A
:10042F0088F0EF60010E4E60C388F0ED2402B40433
:10043F000050B9F582EB2402B4040050AF232345DA
:06044F0082239003AF734D
:10045500BB010689828A83E0225002E722BBFE02A5
:09046500E32289828A83E49322D8
:10046E00BB010689828A83F0225002F722BBFE016D
:02047E00F32267
:10048000BC000BBE0029EF8DF084FFADF022E4CC60
:10049000F875F008EF2FFFEE33FEEC33FCEE9DEC29
:1004A000984005FCEE9DFE0FD5F0E9E4CEFD22ED6F
:1004B000F8F5F0EE8420D21CFEADF075F008EF2FB9
:1004C000FFED33FD4007985006D5F0F222C398FDAA
:0504D0000FD5F0EA2247
:1004D500C2D5EC30E709B2D5E4C39DFDE49CFCEE42
:1004E50030E715B2D5E4C39FFFE49EFE120480C336
:1004F500E49DFDE49CFC800312048030D507C3E431
:060505009FFFE49EFE22B0
:10000300E53D2431F8E6053D22782E3007027831AC
:10001300E475F0011205380204552000EB7F2ED25F
:10002300008018EF540F2490D43440D4FF30040BD5
:10003300EF24BFB41A0050032461FFE53E600215AC
:100043003E0541E5417002054030070D782EE47509
:10005300F001120538EF02046E020B3F7403D2075E
:100063008003E4C207F53D8B2E8A2F8930E4F53EE9
:10007300F540F541E53E60077F2012003E80F575AF
:100083003FFFC201C200C202C203C205C206C208C8
:1000930012000CFF700D3007057F0012004FAF41B7
:1000A300AE4022B4255FC2D5C20412000CFF24D097
:1000B300B40A00501A75F00A783E30D50508B6FF29
:1000C3000106C6A426F620D5047002D20380D924E3
:1000D300CFB41A00EF5004C2E5D20402024FD2019A
:1000E30080C6D20080C0D20280BCD2D580BAD205ED
:1000F30080B47F2012003E2002077401B53E004009
:10010300F1120003FF12003E020077D208D20680EC
:1001130095120003FB120003FA120003F94A4B7015
:100123000679207A037BFF20022EE53E602A7E00BB
:100133008E8275830012050B60060EEE653F70F02C
:10014300C2D5EBC0E0EAC0E0E9C0E0EE120296D00F
:10015300E0F9D0E0FAD0E0FB120455FF60AAEBC04F
:10016300E0EAC0E0E9C0E012003ED0E02401F9D0AB
:10017300E03400FAD0E0FBE53F0460DCD53FD980F2
:10018300877BFF7A027992D202809C791080027970
:1001930008C206C2088008D2D5790A8004790AC247
:1001A300D5E53F047002F53FE4FAFDFEFF120003BC
:1001B300FC7B08200113120003FD7B1030000A12A0
:1001C3000003FE120003FF7B20EC3382D592D5504F
:1001D30013C3E43000069FFFE49EFEE42001039D69
:1001E300FDE49CFCE4CBF8C201EC700CCFCECDCC8B
:1001F300E824F8F870F38017C3EF33FFEE33FEED16
:1002030033FDEC33FCEB33FB994002FB0FD8E9EBF6
:10021300300105F8D0E0C448B201C0E00AEC4D4E0D
:100223004F78207B0070C2EAB53F0040BCC0E012AB
:100233000298D0F0D0E0200104C4C0E0C4B201C0F1
:10024300F0120027D0F0D5F0EB0200771205480139
:100253001453018E5800E54C00E14201924F019A7C
:0F02630044019A4900FA4301A0550184460184E1
:100272004501844703405000E92D00ED2E01102B6B
:1002820000F123010E2003292A00A94800000108D9
:100292003F3F3F00790AA2D5200314300509B91067
:1002A200020404B9080104A2D52006025001042068
:1002B20002689202B53E005034C0E07F203003193C
:1002C2007F30A20272067205500F1202EFC202C202
:1002D20006C205C2087F30800F300503E9C0E01274
:1002E200003E300503D0E0F9D0E0B53ECC30051732
:1002F2007F30B9100C12003E7F583004077F78809F
:1003020003B9080312003E3002057F2D02003E7F32
:10031200202008F87F2B2006F322920280CF286E3D
:10032200756C6C2900D2011200033001F8C2017809
:100332003E30D50108F60200A92D5043495812005B
:10034200032403B405004001E490033B9312002F01
:0D035200743A12002FD203753E0402018E92
:100759000207D9E493A3F8E493A34003F68001F2D6
:1007690008DFF48029E493A3F85407240CC8C333A1
:10077900C4540F4420C8834004F456800146F6DF70
:10078900E4800B0102040810204080900B8BE47E6A
:10079900019360BCA3FF543F30E509541FFEE49365
:1007A900A360010ECF54C025E060A840B8E493A32C
:1007B900FAE493A3F8E493A3C8C582C8CAC583CA57
:1007C900F0A3C8C582C8CAC583CADFE9DEE780BE0F
:010BA600004E
:10050B00BB010CE58229F582E5833AF583E02250A5
:10051B0006E92582F8E622BBFE06E92582F8E222EF
:0D052B00E58229F582E5833AF583E4932209
:10053800FAE6FB0808E6F925F0F618E6CA3AF622C4
:10054800D083D082F8E4937012740193700DA3A342
:1005580093F8740193F5828883E473740293686056
:06056800EFA3A3A380DF56
:100B3F00EFB40A07740D120B4A740A309811A89972
:100B4F00B8130CC2983098FDA899C298B811F63016
:070B5F0099FDC299F59922EE
:00000001FF
