:04039E00021E0366D2
:10036700C2A3C2A4C2A5C2A6C2A7120202AF1FAEF1
:100377001E12024F120003AF1FAE1E12013280F48D
:1000030020004020924C7F057E00120387209242FD
:10001300D200C3E51F9438E51E94045013740A25D7
:100023001FF51FE4351EF51EAF1FFE12024F80227F
:10003300C3E51F9438E51E94044017751E04751F0D
:1000430038800F30920C7F057E00120387309202B6
:10005300C20020023E20934A7F057E0012038720C0
:100063009340D202D3E51F9466E51E9403401274B5
:10007300F6251FF51F74FF351EF51EAF1FFE020286
:100083004FD3E51F9466E51E94035016751E037542
:100093001F662230930C7F057E0012038730930284
:0300A300C2022274
:0503E2001203E7D2A1A7
:0103E70022F3
:0F03AF00D2A0D2A11203E7C2A01203E7C2A1227B
:0C03CC00C2A0D2A11203E7D2A00203E7F6
:0A03D800A20792A01203E2C2A122C4
:0D03BE00D2A01203E2A2A09206C2A1A206E4
:0103CB00220F
:100342007E08AD061EED6015EF30E704D2A08002F4
:10035200C2A01203E2C2A1EF25E0FF80E51203BEB4
:040362009205A20559
:010366002274
:100318007F08E4FED2A0AD071FED6014EE25E0FED5
:10032800D2A11203E730A0010EC2A11203E780E6B2
:09033800A20892071203D8AF06D7
:010341002299
:0602ED008F118C128D132D
:1002F3001203AF7F581203429204200411AF11126C
:1003030003429204200407AF131203429204120320
:04031300CCA204B3C1
:0103170022C3
:0402BB007C00E4FFE0
:0602BF008F0C8C0D8D0E6A
:1002C500750F00751008E51015107002150F14450F
:1002D5000F600BAD0EAC0DAF0C1202ED50E8E51042
:0702E500450F7002C322D394
:0102EC0022EF
:100202007D811202BB7F147E001203877D107C0069
:100212007F031202BF7D347C007F041202BF7D4146
:100222001202BB7D011202BB7F147E001203877D86
:100232007E7C007F011202BF7DA97C007F02120238
:0D024200BF7D221202BB7F147E00020387E5
:10024F00EF2408FFEE34FDFEEF25E0F509EE33F560
:10025F000885090B4424F50A7F147E00120387E5F5
:10026F000AFD1202BBE50BFD7C007F011202BF7F6E
:06027F00147E000203875B
:100387007D737C00ED1D70011C144C70F7EF1F701E
:06039700011E144E70EA85
:01039D00223D
:0C03A2000A14C0F9A4B0999282F880906F
:10028500EF75F00A84AEF0EF75F00A84F522AF063B
:1002950074142FF8E6F580D2A67F017E001203873D
:1002A500C2A674142522F8E6F580D2A77F017E0048
:0502B500120387C2A73F
:0102BA002221
:04013200AB07AA0667
:100136007C037DE81201AD8F0A7C037DE8AF03AE38
:10014600021201AD7E007F64CFCDCFCECCCE1201A0
:10015600AD8F09AE02AF037C007D641201AD7E0057
:100166007F0ACFCDCFCECCCE1201AD8F0874142529
:100176000AF8E6F580D2A57F017E00120387C2A5A4
:1001860074142509F8E6F580D2A47F017E001203D7
:1001960087C2A474142508F8E6F580D2A37F017EF1
:0601A60000120387C2A352
:0101AC002230
:030000000200A655
:0C00A600787FE4F6D8FD7581220200EDA1
:1001AD00BC000BBE0029EF8DF084FFADF022E4CC36
:1001BD00F875F008EF2FFFEE33FEEC33FCEE9DECFF
:1001CD00984005FCEE9DFE0FD5F0E9E4CEFD22ED45
:1001DD00F8F5F0EE8420D21CFEADF075F008EF2F8F
:1001ED00FFED33FD4007985006D5F0F222C398FD80
:0501FD000FD5F0EA221D
:1000B200020367E493A3F8E493A34003F68001F2FA
:1000C20008DFF48029E493A3F85407240CC8C3334F
:1000D200C4540F4420C8834004F456800146F6DF1E
:1000E200E4800B010204081020408090039EE47E0D
:1000F200019360BCA3FF543F30E509541FFEE49313
:10010200A360010ECF54C025E060A840B8E493A3D9
:10011200FAE493A3F8E493A3C8C582C8CAC583CA04
:10012200F0A3C8C582C8CAC583CADFE9DEE780BEBC
:0103AE00004E
:00000001FF
